:1000000008C1000036C1000034C1000032C1000048
:1000100030C100002EC100002CC100002AC1000028
:1000200028C1000026C1000024C1000022C1000038
:1000300020C100001EC100001CC100001AC1000048
:1000400018C1000016C1000014C1000012C1000058
:1000500010C100000EC100000CC1000087C40000E8
:1000600008C100004DC4000022C4000002C100000D
:1000700000C10000FEC00000FCC00000FAC000008B
:10008000F8C00000F6C00000F4C00000F2C000009C
:10009000F0C00000EEC00000ECC00000B1C40000E1
:1000A000E8C00000E6C00000E4C00000E2C00000BC
:1000B000E0C00000DEC00000DCC00000DAC00000CC
:1000C000D8C00000D6C00000D4C00000D2C00000DC
:1000D000D0C00000CEC00000CCC00000CAC00000EC
:1000E000C8C000005E066106500654065806980611
:1000F000650669066F06730677067D068106850626
:1001000098068B068F069306000021002400270026
:100110002A002D0030003300010100000401070116
:100120000A0100002200250028002B002E003100CB
:10013000340002010000050108010B010505050559
:10014000070508080808020202020A0A080804044F
:10015000040401010101010101010303030303037D
:100160000303040707070C0C0C0C0C0C0C0C02020C
:10017000020206060606060606060B0B0B0B0B0B09
:100180000B0B010210202008081020401020408096
:10019000020102010804020101020408102040804B
:1001A00080402010080402018004020180402010D9
:1001B0000804020108040201010204081020408022
:1001C000010204081020408000000A0B02090C0DF7
:1001D0000E080703040100000000000000000000FA
:1001E000000000000000000000000000000000000F
:1001F00000000000121110000000000000000000CC
:1002000000000000000000000000000000001F0AC5
:100210001A0A11241FBECFEFD1E2DEBFCDBF00E02E
:100220000CBF24E0A0E8B2E001C01D92A930B207E3
:10023000E1F712E0A0E0B2E0EAE2FDE100E00BBF8E
:1002400002C007900D92A038B107D9F711E0C8E0BD
:10025000D1E000E006C021970109802FFE010E9435
:10026000570CC730D10780E00807A9F770D50C9468
:10027000840EC6CEDC01ED91FC910190F081E02D61
:100280001994CF92DF92EF92FF920F931F93CF9327
:10029000DF936C017A018B01C0E0D0E0CE15DF0561
:1002A00089F0D8016D918D01D601ED91FC910190FD
:1002B000F081E02DC6011995892B11F47E0102C051
:1002C0002196ECCFC701DF91CF911F910F91FF9045
:1002D000EF90DF90CF900895FC01538D448D252F32
:1002E00030E0842F90E0821B930B541710F0CF96D0
:1002F000089501970895FC01918D828D981761F002
:10030000828DDF01A80FB11D5D968C91928D9F5F4C
:100310009F73928F90E008958FEF9FEF0895FC01F7
:10032000918D828D981731F0828DE80FF11D858DAA
:1003300090E008958FEF9FEF0895FC01918D228D3D
:10034000892F90E0805C9F4F821B91098F739927C2
:10035000089583E493E0F1DF21E0892B09F420E0A4
:10036000822F0895FC01848DDF01A80FB11DA35ACF
:10037000BF4F2C91848D90E001968F739927848FC5
:10038000A689B7892C93A089B1898C9180648C93BC
:10039000938D848D981306C00288F389E02D8081A7
:1003A0008F7D80830895EF92FF920F931F93CF93D9
:1003B000DF93EC0181E0888F9B8D8C8D981305C0B5
:1003C000E889F989808185FD23C0F62E0B8D10E028
:1003D0000F5F1F4F0F731127E02E8C8DE8120BC09B
:1003E0000FB607FCFACFE889F989808185FFF5CF40
:1003F000CE01B8DFF2CF8B8DFE01E80FF11DE35A7D
:10040000FF4FF0820B8FEA89FB898081806207C0F1
:10041000EE89FF896083E889F9898081806480831F
:1004200081E090E0DF91CF911F910F91FF90EF90CD
:100430000895CF93DF93EC01888D8823C1F0EA897A
:10044000FB89808185FD05C0A889B9898C9186FDCD
:100450000EC00FB607FCF5CF808185FFF2CFA889CB
:10046000B9898C9185FFEDCFCE017CDFE8CFDF919C
:10047000CF91089580E090E0892B19F06ADF811117
:1004800025C080E090E0892B41F080E090E0892B4E
:1004900021F00E94000081111CC080E090E0892BB7
:1004A00041F080E090E0892B21F00E940000811152
:1004B00013C080E090E0892BA1F080E090E0892BD0
:1004C00081F00E94000081110AC008950E9400007E
:1004D000D8CF0E940000E1CF0E940000EACF0C9428
:1004E00000000895863308F0865390917B00282FF2
:1004F0002870977F922B90937B0087708064809305
:100500007C0080917A00806480937A0080917A00E8
:1005100086FDFCCF809178002091790090E0922BAD
:1005200008953FB7F8948091CC029091CD02A091AC
:10053000CE02B091CF0226B5A89B05C02F3F19F07F
:100540000196A11DB11D3FBFBA2FA92F982F882753
:10055000820F911DA11DB11DBC01CD0142E0660FAE
:10056000771F881F991F4A95D1F7089585ED8093CD
:10057000BC008091BC0084FDFCCF1092180308954C
:100580004091A202262F30E0240F311D2132310587
:10059000DCF4209118032430C9F4FC0180E090E0E1
:1005A000861758F43091A2022191DC01A058BD4F6A
:1005B000A30FB11D2C930196F3CF8091A202680F77
:1005C0006093A20280E0089581E0089582E008959A
:1005D0000895E091D1028091D002E81730F4F0E064
:1005E000EE52FD4F808190E008958FEF9FEF0895C8
:1005F0009091D1028091D002981750F4E92FF0E049
:10060000EE52FD4F208130E09F5F9093D10202C0F7
:100610002FEF3FEFC90108958091D00290E0209123
:10062000D102821B91090895CF92DF92EF92FF923F
:100630000F931F93CF93DF937C01262F972F8A016F
:1006400080913C03882391F0C62FD72F6E01C40EF2
:10065000D51ECC15DD0569F06991D701ED91FC91AE
:100660000190F081E02DC7011995F3CF642F822FFF
:1006700087DFC801DF91CF911F910F91FF90EF901D
:10068000DF90CF900895CF93DF931F92CDB7DEB761
:10069000698320913C032223D1F020913903203239
:1006A00040F021E030E0FC013383228380E090E0E1
:1006B00014C080913A03E82FF0E0E75EFC4F998187
:1006C00090838F5F80933A038093390304C061E085
:1006D000CE01019655DF81E090E00F90DF91CF9140
:1006E0000895089580E090E008956115710579F00E
:1006F000FB0101900020E9F73197AF01461B570B32
:10070000DC01ED91FC910280F381E02D199480E0F1
:1007100090E008954F925F926F927F92EF92FF92D6
:100720000F931F93CF93DF93CDB7DEB7A1970FB68B
:10073000F894DEBF0FBECDBF7C01FA01CB0119A238
:10074000223008F42AE08E010F5D1F4F422E512CFB
:10075000612C712CBF01A30192010E94350CF9019B
:10076000CA01015011096A3014F4605D01C0695C6E
:10077000D8016C93232B242B252B61F7B801C701DB
:10078000B4DFA1960FB6F894DEBF0FBECDBFDF91E8
:10079000CF911F910F91FF90EF907F906F905F909E
:1007A0004F9008958F929F92AF92BF92CF92DF9217
:1007B000EF92FF920F931F93CF93DF937C018B01F6
:1007C0006C0182E0C80ED11C4701E5E08E0E911C41
:1007D000C0E0D0E0F60141916F0150E060E070E0D0
:1007E0002AE0C80197DF5C016EE2C80143DD8A0D93
:1007F0009B1DC80FD91FC814D90461F7F7014581A3
:1008000050E060E070E02AE0C80184DF8C0F9D1F9B
:10081000DF91CF911F910F91FF90EF90DF90CF90DC
:10082000BF90AF909F908F9008950E94700EEF92AE
:10083000FF920F931F93CF93DF93EC017B018A010B
:1008400088819981009729F02A813B8124173507F7
:10085000F8F4B8016F5F7F4F0E948C0D009759F03C
:10086000998388831B830A832C813D81232B81F408
:10087000FC0110820DC088819981009711F00E94BF
:10088000F40C198218821D821C821B821A8207C0F6
:100890001D830C83B701888199810E947D0ECE0152
:1008A000DF91CF911F910F91FF90EF9008951F92CC
:1008B0000F920FB60F9211240BB60F922F933F9306
:1008C0004F935F936F937F938F939F93AF93BF9358
:1008D000EF93FF9383E493E045DDFF91EF91BF91A8
:1008E000AF919F918F917F916F915F914F913F91C8
:1008F0002F910F900BBE0F900FBE0F901F90189569
:100900001F920F920FB60F9211240BB60F922F93D6
:100910008F939F93EF93FF93E0915303F0915403D0
:100920008081E0915903F0915A0382FD12C09081B9
:1009300080915C038F5F8F7320915D03821751F06C
:10094000E0915C03F0E0ED5BFC4F958F80935C03DE
:1009500001C08081FF91EF919F918F912F910F9016
:100960000BBE0F900FBE0F901F9018951F920F9205
:100970000FB60F9211242F933F938F939F93AF93B2
:10098000BF938091C8029091C902A091CA02B09110
:10099000CB023091C70223E0230F2D3720F40196BC
:1009A000A11DB11D05C026E8230F0296A11DB11D92
:1009B0002093C7028093C8029093C902A093CA02F1
:1009C000B093CB028091CC029091CD02A091CE0247
:1009D000B091CF020196A11DB11D8093CC029093DE
:1009E000CD02A093CE02B093CF02BF91AF919F9161
:1009F0008F913F912F910F900FBE0F901F901895E0
:100A00001F920F920FB60F9211240BB60F922F93D5
:100A10003F934F935F936F937F938F939F93AF9386
:100A2000BF93EF93FF938091B900887F803609F4DC
:100A30009CC068F5883209F45BC090F4803109F4F9
:100A400054C038F4882309F4F6C0883009F44DC046
:100A5000F5C0883109F44CC0803209F45DC0EEC0A5
:100A6000803409F468C048F4803309F455C08833F1
:100A700009F0E4C080931603D8C0803509F44FC054
:100A8000883509F45DC0883409F0D8C0D6C08839EB
:100A900009F4C7C0A8F4883709F467C038F4883669
:100AA00009F463C0803709F460C0C8C0883809F40D
:100AB000B8C0803909F45FC0803809F0BFC05BC09E
:100AC000803B09F486C038F4803A09F466C0883A5D
:100AD00009F47FC0B3C0803C09F4A7C0883C09F486
:100AE000A4C0883B09F48AC0A9C08091F30210C059
:100AF0009091150380911403981770F5E0911503F8
:100B000081E08E0F80931503F0E0EC50FD4F808163
:100B10008093BB0085EC86C0809316038EC0E09165
:100B2000150381E08E0F809315038091BB00F0E0E8
:100B3000EC50FD4F808390911503809114036EC09B
:100B4000E091150381E08E0F809315038091BB0027
:100B5000F0E0EC50FD4F80838091170381116DC050
:100B600081E08093F20284EA61C083E080931803FD
:100B70001092C602CFCF8091C602803208F051C0D9
:100B8000E091C60281E08E0F8093C6028091BB0087
:100B9000F0E0EA55FD4F8083BDCF85EC8093BC002B
:100BA000109218038091C602803230F4E091C602A0
:100BB000F0E0EA55FD4F10826091C60270E0E091CE
:100BC000A402F091A50286EA92E019951092C6025D
:100BD00035C084E0809318031092A3021092A20201
:100BE000E091A002F091A10219958091A2028111D9
:100BF00005C081E08093A20210928002E091A302DE
:100C000081E08E0F8093A302F0E0E058FD4F8081D9
:100C10008093BB009091A3028091A202981708F4E0
:100C200079CF85E88093BC0009C085EC8093BC0037
:100C30001092180303C01092160398DCFF91EF91F5
:100C4000BF91AF919F918F917F916F915F914F91E4
:100C50003F912F910F900BBE0F900FBE0F901F90E2
:100C6000189590E0FC01E853FE4F4491FC01EE57CB
:100C7000FE4F2491FC01E45CFE4F9491992309F40A
:100C800065C0442309F454C050E0FA013197E231C1
:100C9000F10508F04DC08827EE58FF4F8F4F07C66B
:100CA000809180008F7707C0809180008F7D03C086
:100CB00080918000877F809380003AC084B58F77D1
:100CC00002C084B58F7D84BD33C08091B0008F7722
:100CD00003C08091B0008F7D8093B00029C08091C7
:100CE00090008F7707C0809190008F7D03C0809126
:100CF0009000877F809390001BC08091A0008F7729
:100D000007C08091A0008F7D03C08091A000877FE5
:100D10008093A0000DC0809120018F7707C0809143
:100D200020018F7D03C080912001877F8093200167
:100D3000E92FF0E0EE0FFF1FEE5DFE4FA591B4919D
:100D40008FB7F894EC912E2B2C938FBF0895CF93EF
:100D5000DF931F921F92CDB7DEB7789484B582607F
:100D600084BD84B5816084BD85B5826085BD85B54F
:100D7000816085BD80916E00816080936E001092CD
:100D80008100809181008260809381008091810048
:100D900081608093810080918000816080938000D9
:100DA0008091B10084608093B1008091B000816037
:100DB0008093B00080919100826080939100809137
:100DC0009100816080939100809190008160809378
:100DD00090008091A10082608093A1008091A10089
:100DE00081608093A1008091A00081608093A00029
:100DF0008091210182608093210180912101816095
:100E00008093210180912001816080932001809155
:100E10007A00846080937A0080917A008260809367
:100E20007A0080917A00816080937A0080917A00C4
:100E3000806880937A001092C10025E030E0F901CB
:100E4000EE57FE4F4491F901E45CFE4F84918823F4
:100E500099F090E0880F991FFC01E85FFE4FA59183
:100E6000B491FC01EE5DFE4F859194918FB7F8949B
:100E7000EC91E42BEC938FBF2F5F3F4F2D3031056A
:100E8000F1F621E030E0F901EE57FE4F4491F9010F
:100E9000E45CFE4F84918823C9F090E0880F991F8D
:100EA000FC01E85FFE4FA591B491FC01EE5DFE4FA1
:100EB000659174919FB7F8948C91E42FE0958E23FF
:100EC0008C93DB018C91E823EC939FBF223031059A
:100ED00019F022E030E0D7CFE0915303F0915403B2
:100EE00082E08083E0914F03F09150031082E09103
:100EF0005103F09152038FEC808310925B03E091D9
:100F00005703F091580386E08083E0915503F091F8
:100F10005603808180618083E0915503F0915603F0
:100F2000808188608083E0915503F0915603808131
:100F300080688083E0915503F091560380818F7D16
:100F400080831092D1021092D00210923A03109234
:100F500039031092180381E0809317031092F20274
:100F600084E17FDE85E17DDE8091B9008E7F809314
:100F7000B9008091B9008D7F8093B90088E4809397
:100F8000B80085E48093BC000FEF15EC93E0292EA8
:100F9000312CF090EC03B1E0B0933C03F0923B03B2
:100FA00010923A031092390366E080EE93E06BDB17
:100FB00080913903813208F046C090911803911155
:100FC000FCCFE2E0E093180310921703009316039E
:100FD0001092150380931403A9E1B3E0E4EFF2E06B
:100FE0009E2F24EF32E0921B981718F49D91919355
:100FF000F7CF1092F3028091F302FF0CF82AF092DF
:10100000F3028091F202813069F41092F202809131
:10101000F3028093BB008091BC0083FDF8CF109356
:10102000BC0003C035EE3093BC00809118038230C1
:10103000E1F3809116038F3F31F0809116038032E7
:1010400011F08091160310923A0310923903109216
:101050003C038091EC03909118039111FCCF91E037
:10106000909318039093170300931603109215039F
:10107000A2E0A09314039093F3029091F302880FDF
:10108000892B8093F3028091F202813069F41092EF
:10109000F2028091F3028093BB008091BC0083FD3B
:1010A000F8CF1093BC0003C0B5EEB093BC008091A4
:1010B00018038130E1F380911503833018F4809197
:1010C000150301C083E0A4EFB2E0E2EDF2E09E2F51
:1010D00022ED32E0921B981718F49D919193F7CF6F
:1010E0001092D1028093D00280EE93E081DA7C01ED
:1010F00080EE93E07DDA8A83198289819A81E82AD9
:10110000F92A80EE93E074DAB70180E090E0FFD135
:101110002AE037ED43EA5CE35BD223E333E948E8B6
:1011200053E40AD36B017C0186E3DCD95C0187E3DD
:10113000D9D9A816B9064CF4909342038093410381
:1011400044E050E066E372E008C0B0924203A0922F
:10115000410347E050E06BE372E08DEE93E067DB24
:10116000E0D92B013C0188EE882E83E0982EA12C3B
:10117000B12CD7D9DC01CB0184199509A609B7098F
:10118000883E9340A105B10558F091E0891A910875
:10119000A108B108A8EE4A0EA3E05A1E611C711CFA
:1011A00081149104A104B10421F763E472E083E4A3
:1011B00093E09BDA8090410390904203092C000C4D
:1011C000AA08BB08B7FE0DC06DE283E493E052D8D5
:1011D00044275527BA01481959096A097B092AE0A9
:1011E00003C02AE0B501A40183E493E093DA6BE441
:1011F00072E083E493E079DA68E572E083E493E0F7
:1012000074DA4091F1035091F2036091ED03709113
:10121000EE0383E493E035D86FE572E083E493E076
:1012200064DA62E672E083E493E05FDAA701960194
:10123000C701B60116D3882319F060E772E018C021
:1012400046015701E894B7F82FEF3FEF4FE75FE70C
:10125000C501B40106D381110FC02FEF3FEF4FE757
:101260005FE7C501B4014FD1181634F464E772E0AA
:1012700083E493E03ADA6DC02FEF3FEF4FE75FE48E
:10128000C701B601EAD218161CF468E772E0F0CF85
:101290002FEF3FEF4FE75FECC701B60134D187FD79
:1012A000F4CF20E030E0A901C701B6012CD187FFBF
:1012B00009C06DE283E493E00E943A01C701B601E0
:1012C000905802C0C701B6012AE037ED43EA5BE35C
:1012D00034D22B013C0195D24B015C0118D19B010A
:1012E000AC01C301B20128D22B013C012AE0B501B7
:1012F000A40183E493E00EDA6EE283E493E00E94BB
:101300003A0120E030E040E251E4C301B20160D193
:101310004B015C0176D22B01612C712C2AE0B301C8
:10132000A20183E493E0F6D9C301B201F0D09B019E
:10133000AC01C501B40100D220E030E040E251E44C
:1013400047D15FD2AB0160E070E02AE083E493E034
:10135000E1D96CE772E083E493E0C7D96FE572E00E
:1013600083E493E0C2D96FE572E083E493E0BDD9F2
:1013700080914103909142038C32F1E09F07CCF0C1
:10138000803921E092073CF481E090E090934003A3
:1013900080933F030EC0843F91403CF4E2E0F0E0D4
:1013A000F0934003E0933F0304C030924003209247
:1013B0003F0320E030E040EA51E4C701B6014DD2DE
:1013C00087FD10C020E030E040EF51E4C701B601D6
:1013D0009AD087FF07C021E030E030933E0320938E
:1013E0003D0326C020E030E040EF51E4C701B601E4
:1013F00034D287FD10C020E030E040E252E4C70163
:10140000B60181D087FF07C082E090E090933E0351
:1014100080933D030DC020E030E040E252E4C7017C
:10142000B6011BD287FD04C030923E0320923D03DB
:1014300021D8AFCD8091ED039091EE03D5C2E9EFB5
:10144000F3E08EE292E09183808312821382148211
:101450001582E3E4F3E01382128248EE53E060E089
:1014600070E044835583668377832AE032E03183DA
:10147000208325EC30E03587248724EC30E0378763
:10148000268720EC30E0318B208B21EC30E0338B51
:10149000228B22EC30E0358B248B26EC30E0378B2E
:1014A000268B118E128E138E148EE0EEF3E01382D3
:1014B000128244835583668377832CE132E0318343
:1014C0002083EFEFF3E091838083128213821482F2
:1014D0001582E3EFF3E091838083128213821482FA
:1014E0001582EDEEF3E011821082138212821582D2
:1014F000148240E050E061E672E0CF0198D98AE5BD
:101500008093EC03089540D008F481E00895E894B6
:1015100009C097FB3EF490958095709561957F4F3B
:101520008F4F9F4F9923A9F0F92F96E9BB279395E9
:10153000F695879577956795B795F111F8CFFAF4F9
:10154000BB0F11F460FF1BC06F5F7F4F8F4F9F4F2A
:1015500016C0882311F096E911C0772321F09EE888
:10156000872F762F05C0662371F096E8862F70E0EE
:1015700060E02AF09A95660F771F881FDAF7880FC8
:101580009695879597F90895990F0008550FAA0B1E
:10159000E0E8FEEF16161706E807F907C0F0121686
:1015A0001306E407F50798F0621B730B840B950B89
:1015B00039F40A2661F0232B242B252B21F40895DE
:1015C0000A2609F4A140A6958FEF811D811D08957B
:1015D0000BD078C069D028F06ED018F0952309F0B0
:1015E0005AC05FC01124A2C07ED0A0F3959FD1F352
:1015F000950F50E0551F629FF001729FBB27F00DC1
:10160000B11D639FAA27F00DB11DAA1F649F662715
:10161000B00DA11D661F829F2227B00DA11D621F64
:10162000739FB00DA11D621F839FA00D611D221F1E
:10163000749F3327A00D611D231F849F600D211D02
:10164000822F762F6A2F11249F5750408AF0E1F0A5
:1016500088234AF0EE0FFF1FBB1F661F771F881FEE
:1016600091505040A9F79E3F510570F014C05EC0E4
:101670005F3FECF3983EDCF3869577956795B795D9
:10168000F795E7959F5FC1F7FE2B880F911D969503
:10169000879597F9089597F99F6780E870E060E073
:1016A00008959FEF80EC089500240A9416161706FB
:1016B00018060906089500240A9412161306140643
:1016C00005060895092E0394000C11F4882352F0A6
:1016D000BB0F40F4BF2B11F460FF04C06F5F7F4F5E
:1016E0008F4F9F4F089557FD9058440F551F59F045
:1016F0005F3F71F04795880F97FB991F61F09F3FFF
:1017000079F087950895121613061406551FF2CF27
:101710004695F1DF08C0161617061806991FF1CF77
:1017200086957105610508940895E894BB2766279E
:101730007727CB0197F908955058BB27AA270ED0D9
:10174000C1CFB2DF30F0B7DF20F031F49F3F11F4AA
:101750001EF4A7CF0EF4E095E7FB9DCFE92FC3DF82
:1017600080F3BA17620773078407950718F071F4BE
:101770009EF5DBCF0EF4E0950B2EBA2FA02D0B01BA
:10178000B90190010C01CA01A0011124FF27591BC6
:1017900099F0593F50F4503E68F11A16F040A22FCC
:1017A000232F342F4427585FF3CF4695379527953D
:1017B000A795F0405395C9F77EF41F16BA0B620B3C
:1017C000730B840BBAF09150A1F0FF0FBB1F661F83
:1017D000771F881FC2F70EC0BA0F621F731F841FC6
:1017E00048F4879577956795B795F7959E3F08F0EC
:1017F000B3CF9395880F08F09927EE0F97958795AB
:10180000089579DF88F09F5790F0B92F9927B75145
:10181000A0F0D1F0660F771F881F991F1AF0BA95B4
:10182000C9F712C0B13081F080DFB1E008957DCFFB
:10183000672F782F8827B85F39F0B93FCCF38695AA
:1018400077956795B395D9F73EF490958095709507
:1018500061957F4F8F4F9F4F089596DE08F48FEF6D
:10186000089592DE880B990B0895A1E21A2EAA1B07
:10187000BB1BFD010DC0AA1FBB1FEE1FFF1FA21740
:10188000B307E407F50720F0A21BB30BE40BF50B3D
:10189000661F771F881F991F1A9469F760957095C6
:1018A000809590959B01AC01BD01CF010895EE0F8D
:1018B000FF1F881F8BBF0790F691E02D1994CF93DF
:1018C000DF938230910510F482E090E0E09107040C
:1018D000F091080420E030E0C0E0D0E0309711F152
:1018E0004081518148175907C0F04817590761F4E2
:1018F00082819381209719F09B838A832BC09093D8
:1019000008048093070426C02115310519F04217F9
:10191000530718F49A01BE01DF01EF010280F38141
:10192000E02DDCCF2115310509F1281B390B2430BE
:10193000310590F412968D919C9113976115710564
:1019400021F0FB019383828304C090930804809369
:101950000704FD01329644C0FD01E20FF31F81939D
:101960009193225031092D933C933AC02091050464
:1019700030910604232B41F420910202309103029E
:101980003093060420930504209100023091010257
:101990002115310541F42DB73EB740910402509115
:1019A0000502241B350BE0910504F0910604E217B3
:1019B000F307A0F42E1B3F0B2817390778F0AC0172
:1019C0004E5F5F4F2417350748F04E0F5F1F50934F
:1019D0000604409305048193919302C0E0E0F0E097
:1019E000CF01DF91CF9108950F931F93CF93DF9392
:1019F000009709F48CC0FC01329713821282009187
:101A00000704109108040115110581F4208131812A
:101A1000820F931F2091050430910604281739077F
:101A200079F5F0930604E093050471C0D80140E015
:101A300050E0AE17BF0750F412962D913C911397CA
:101A4000AD012115310509F1D901F3CF9D01DA016D
:101A50003383228360817181860F971F82179307DA
:101A600069F4EC0128813981260F371F2E5F3F4F23
:101A7000318320838A819B8193838283452B29F440
:101A8000F0930804E093070442C01396FC93EE938E
:101A90001297ED01499159919E01240F351FE217CC
:101AA000F30771F480819181840F951F029611963E
:101AB0009C938E938281938113969C938E9312971D
:101AC000E0E0F0E0D80112968D919C911397009779
:101AD00019F0F8018C01F6CF8D919C9198012E5F41
:101AE0003F4F820F931F2091050430910604281761
:101AF000390769F4309729F410920804109207040A
:101B000002C0138212821093060400930504DF9131
:101B1000CF911F910F9108956F927F928F929F9214
:101B2000AF92BF92CF92DF92EF92FF920F931F93EB
:101B3000CF93DF93EC01009781F4CB01DF91CF913C
:101B40001F910F91FF90EF90DF90CF90BF90AF90DB
:101B50009F908F907F906F90B2CEFC01E60FF71FA1
:101B60009C0122503109E217F30708F4A8C0D901FB
:101B70000D911C91119706171707A8F00530110554
:101B800008F49BC0C80104978617970708F495C00E
:101B900002501109061B170B019311936D937C934F
:101BA000CF0122DF8AC05B01A01AB10A4C01800E6E
:101BB000911EA0910704B091080440E050E0E12C90
:101BC000F12C109709F44AC0A815B905D1F56D900C
:101BD0007C901197630182E0C80ED11CCA14DB040B
:101BE00080F1A3014A195B096A0182E0C80ED11C89
:101BF0001296BC9012971396AC91B5E0CB16D10417
:101C000040F0B282A38351834083D9016D937C93CA
:101C10000AC00E5F1F4FC301800F911FF90191830E
:101C20008083EB2DFA2FE114F10431F0D7011396E4
:101C3000FC93EE93129741C0F0930804E0930704DD
:101C40003CC08D919C9111974817590708F4AC013D
:101C50007D0112960D90BC91A02DB3CF809105040B
:101C60009091060488159905E1F446175707C8F4C2
:101C70008091000290910102009741F48DB79EB7C8
:101C80004091040250910502841B950BE817F90757
:101C9000B0F4F0930604E0930504F90171836083C6
:101CA0000CC0CB010CDE7C01009749F0A801BE01FD
:101CB0001BD0CE0199DEC70104C0CE0102C080E076
:101CC00090E0DF91CF911F910F91FF90EF90DF9007
:101CD000CF90BF90AF909F908F907F906F9008951E
:101CE00081E090E0F89410C0FB01DC0102C001909B
:101CF0000D9241505040D8F70895FB01DC0101904E
:101D00000D920020E1F7089511E0C8E0D1E000E075
:101D100005C0802FFE01CBDD2196011DC930D10702
:0A1D200080E00807B1F7F894FFCF48
:101D2A0000000904800000000000D30141016C0199
:101D3A0019029D017B018F01000000004303140377
:101D4A007203E8020C03F802E90200000000D20361
:101D5A000000000015043330334200466163756C9D
:101D6A00747900536D6F6B653A20002050504D20F6
:101D7A002020202020202000526F6F6D3A20000D75
:101D8A000A0054656D70657261747572653A200057
:101D9A006E616E00696E66006F7666002A43000007
:00000001FF
